:100000000C942A000C943C000C943C000C94F702D5
:100010000C943C000C943C000C943C000C943C0070
:100020000C943C000C943C000C943C000C9450024A
:100030000C943C000C943C000C943C000C943C0050
:100040000C943C000C943C000C943C000C943C0040
:100050000C943C0011241FBECFE5D8E0DEBFCDBF1D
:1000600010E0A0E6B0E001C01D92A736B107E1F7AD
:100070000E948E010C9449030C940000DF93CF93EF
:10008000CDB7DEB7A1E3B0E0E1E3F0E080818460CA
:100090008C93A1E3B0E0E1E3F0E0808188608C9391
:1000A000A1E3B0E0E1E3F0E0808180618C93A2E322
:1000B000B0E0E2E3F0E080818B7F8C93A2E3B0E0DC
:1000C000E2E3F0E08081877F8C93A2E3B0E0E2E39B
:1000D000F0E0808180618C93A1E3B0E0E1E3F0E0A7
:1000E000808180648C93A1E3B0E0E1E3F0E0808163
:1000F00080688C93A1E3B0E0E1E3F0E0808180626E
:100100008C93A2E3B0E0E2E3F0E080818F7B8C93FC
:10011000A2E3B0E0E2E3F0E080818F778C93A2E38A
:10012000B0E0E2E3F0E0808180628C93CF91DF91D8
:100130000895DF93CF93CDB7DEB7A2E3B0E0E2E35B
:10014000F0E080818B7F8C93A2E3B0E0E2E3F0E00B
:10015000808188608C93A2E3B0E0E2E3F0E08081EC
:1001600080648C93A2E3B0E0E2E3F0E080818F77DB
:100170008C93CF91DF910895DF93CF93CDB7DEB706
:10018000A2E3B0E0E2E3F0E0808184608C93A2E33C
:10019000B0E0E2E3F0E08081877F8C93A2E3B0E0FF
:1001A000E2E3F0E080818F7B8C93A2E3B0E0E2E3B6
:1001B000F0E0808180688C93CF91DF910895DF9388
:1001C000CF93CDB7DEB7A2E3B0E0E2E3F0E0808109
:1001D0008B7F8C93A2E3B0E0E2E3F0E08081886063
:1001E0008C93A2E3B0E0E2E3F0E080818F7B8C931C
:1001F000A2E3B0E0E2E3F0E0808180688C93CF91ED
:10020000DF910895DF93CF93CDB7DEB7A2E3B0E0DF
:10021000E2E3F0E0808184608C93A2E3B0E0E2E36B
:10022000F0E08081877F8C93A2E3B0E0E2E3F0E02E
:1002300080818F7B8C93A2E3B0E0E2E3F0E08081E9
:1002400080688C93CF91DF910895DF93CF93CDB7E2
:10025000DEB7A2E3B0E0E2E3F0E080818B7F8C9335
:10026000A2E3B0E0E2E3F0E0808188608C93A2E357
:10027000B0E0E2E3F0E080818F7B8C93A2E3B0E01A
:10028000E2E3F0E080818F778C93CF91DF91089546
:10029000DF93CF93CDB7DEB7A2E3B0E0E2E3F0E0C7
:1002A00080818B7F8C93A2E3B0E0E2E3F0E0808179
:1002B000877F8C93A2E3B0E0E2E3F0E080818F7B64
:1002C0008C93A2E3B0E0E2E3F0E0808180688C935D
:1002D000CF91DF910895DF93CF93CDB7DEB7A2E33F
:1002E000B0E0E2E3F0E080818B7F8C93A2E3B0E0AA
:1002F000E2E3F0E08081877F8C93A2E3B0E0E2E369
:10030000F0E080818F7B8C93A2E3B0E0E2E3F0E049
:1003100080818F778C93CF91DF910895DF93CF9376
:100320000F92CDB7DEB70E94AD0219820E94CD02B6
:10033000A7E3B0E0E7E3F0E0808180618C93A7E37E
:10034000B0E0E7E3F0E0808180628C930E943E00A1
:100350000E94990086E966E90E9408028091610086
:10036000882329F40E94BB0281E080936100809180
:10037000650090916600009789F3809165009091E7
:1003800066008436910530F48981882319F481E070
:100390008983E4CF8091650090916600813A910550
:1003A00050F08981813039F48EEB6EEB0E940802A7
:1003B00082E08983D3CF8091650090916600843676
:1003C000910530F48981823019F483E08983C6CFA6
:1003D0008091650090916600813A910550F0898185
:1003E000833039F48FEF6FEF0E94080284E0898335
:1003F000B5CF80916500909166008F30910508F02F
:10040000ADCF8981843009F0A9CF0E946B01A6CFBE
:10041000DF93CF9300D0CDB7DEB789836A83ECE456
:10042000F0E01082EAE4F0E089818083E8E4F0E023
:100430008A818083A1E3B0E0E1E3F0E08081806223
:100440008C93A1E3B0E0E1E3F0E0808180648C93E1
:10045000AFE4B0E0EFE4F0E0808181608C93AFE442
:10046000B0E0EFE4F0E0808180688C93AFE4B0E02E
:10047000EFE4F0E0808180628C93AEE4B0E0EEE4E3
:10048000F0E0808188608C93AEE4B0E0EEE4F0E0D0
:10049000808182608C930F900F90CF91DF910895AF
:1004A0001F920F920FB60F9211248F939F93AF93C9
:1004B000BF93EF93FF93DF93CF93CDB7DEB78091D8
:1004C0006000882359F4ABE3B0E0EBE3F0E0808117
:1004D0008E7F8C9381E08093600013C080916100D7
:1004E00090916200A0916300B09164000196A11DFB
:1004F000B11D8093610090936200A0936300B0935C
:100500006400CF91DF91FF91EF91BF91AF919F91E7
:100510008F910F900FBE0F901F901895DF93CF9380
:10052000CDB7DEB7E2E5F0E01082A9E5B0E0E9E59D
:10053000F0E0808181608C93A3E5B0E0E3E5F0E03A
:10054000808180688C93A3E5B0E0E3E5F0E08081F2
:1005500081608C93CF91DF910895DF93CF93CDB7D6
:10056000DEB7AAE3B0E0EAE3F0E0808181608C933B
:10057000CF91DF910895DF93CF93CDB7DEB7ABE393
:10058000B0E0EBE3F0E0808181608C93109260003A
:100590000E948E02CF91DF910895DF93CF93CDB764
:1005A000DEB7AFE5B0E0EFE5F0E080818F778C93C8
:1005B000A7E3B0E0E7E3F0E080818B7F8C93ABE5CD
:1005C000B0E0EBE5F0E0808180628C93A4E5B0E0E0
:1005D000E4E5F0E080818F7B8C93AFE5B0E0EFE560
:1005E000F0E0808180688C93CF91DF9108951F9215
:1005F0000F920FB60F9211242F933F935F936F9337
:100600007F938F939F93AF93BF93DF93CF93CDB798
:10061000DEB7809161009091620082959295907F03
:100620009827807F9827885C904024E630E0B901C5
:100630000E943503CB019093660080936500109271
:1006400062001092610010926000CF91DF91BF9123
:10065000AF919F918F917F916F915F913F912F917A
:100660000F900FBE0F901F901895AA1BBB1B51E156
:1006700007C0AA1FBB1FA617B70710F0A61BB70B12
:10068000881F991F5A95A9F780959095BC01CD01B7
:060690000895F894FFCF6D
:00000001FF
