:100000000C942A000C943C000C943C000C947B044F
:100010000C943C000C94BB030C943C000C943C00EE
:100020000C943C000C943C000C943C000C94650334
:100030000C943C000C943C000C943C000C943C0050
:100040000C943C000C943C000C943C000C943C0040
:100050000C943C0011241FBECFE5D8E0DEBFCDBF1D
:1000600010E0A0E6B0E001C01D92A937B107E1F7AA
:100070000E948E010C940C050C940000DF93CF932A
:10008000CDB7DEB7A1E3B0E0E1E3F0E080818460CA
:100090008C93A1E3B0E0E1E3F0E0808188608C9391
:1000A000A1E3B0E0E1E3F0E0808180618C93A2E322
:1000B000B0E0E2E3F0E080818B7F8C93A2E3B0E0DC
:1000C000E2E3F0E08081877F8C93A2E3B0E0E2E39B
:1000D000F0E0808180618C93A1E3B0E0E1E3F0E0A7
:1000E000808180648C93A1E3B0E0E1E3F0E0808163
:1000F00080688C93A1E3B0E0E1E3F0E0808180626E
:100100008C93A2E3B0E0E2E3F0E080818F7B8C93FC
:10011000A2E3B0E0E2E3F0E080818F778C93A2E38A
:10012000B0E0E2E3F0E0808180628C93CF91DF91D8
:100130000895DF93CF93CDB7DEB7A2E3B0E0E2E35B
:10014000F0E080818B7F8C93A2E3B0E0E2E3F0E00B
:10015000808188608C93A2E3B0E0E2E3F0E08081EC
:1001600080648C93A2E3B0E0E2E3F0E080818F77DB
:100170008C93CF91DF910895DF93CF93CDB7DEB706
:10018000A2E3B0E0E2E3F0E0808184608C93A2E33C
:10019000B0E0E2E3F0E08081877F8C93A2E3B0E0FF
:1001A000E2E3F0E080818F7B8C93A2E3B0E0E2E3B6
:1001B000F0E0808180688C93CF91DF910895DF9388
:1001C000CF93CDB7DEB7A2E3B0E0E2E3F0E0808109
:1001D00084608C93A2E3B0E0E2E3F0E08081877F6B
:1001E0008C93A2E3B0E0E2E3F0E0808180648C9342
:1001F000A2E3B0E0E2E3F0E080818F778C93CF91CF
:10020000DF910895DF93CF93CDB7DEB7A2E3B0E0DF
:10021000E2E3F0E080818B7F8C93A2E3B0E0E2E345
:10022000F0E0808188608C93A2E3B0E0E2E3F0E04C
:1002300080818F7B8C93A2E3B0E0E2E3F0E08081E9
:1002400080688C93CF91DF910895DF93CF93CDB7E2
:10025000DEB7A2E3B0E0E2E3F0E080818B7F8C9335
:10026000A2E3B0E0E2E3F0E08081877F8C93A2E339
:10027000B0E0E2E3F0E080818F7B8C93A2E3B0E01A
:10028000E2E3F0E0808180688C93CF91DF91089564
:10029000DF93CF93CDB7DEB7A2E3B0E0E2E3F0E0C7
:1002A00080818B7F8C93A2E3B0E0E2E3F0E0808179
:1002B00088608C93A2E3B0E0E2E3F0E080818F7B82
:1002C0008C93A2E3B0E0E2E3F0E080818F778C933F
:1002D000CF91DF910895DF93CF93CDB7DEB7A2E33F
:1002E000B0E0E2E3F0E080818B7F8C93A2E3B0E0AA
:1002F000E2E3F0E08081877F8C93A2E3B0E0E2E369
:10030000F0E080818F7B8C93A2E3B0E0E2E3F0E049
:1003100080818F778C93CF91DF910895DF93CF9376
:1003200000D00F92CDB7DEB7A7E3B0E0E7E3F0E08F
:10033000808180618C93A7E3B0E0E7E3F0E0808107
:1003400080628C93A7E3B0E0E7E3F0E08081806413
:100350008C93A7E3B0E0E7E3F0E0808180688C93C2
:100360000E9411040E9451040E943E0019820E94C2
:10037000990080916B00882329F40E942D0481E06C
:1003800080936B0080916E00882329F40E943F04C3
:1003900081E080936E00E9E3F0E080818695882F0C
:1003A00090E081709070882321F081E0809360005C
:1003B00054C0E9E3F0E080818695882F90E0817059
:1003C0009070009709F049C080916000813009F079
:1003D00044C01092600080916900E82FF0E08091A5
:1003E0006E00882F90E0982F8827885C90402AE341
:1003F00030E0B9010E94F904CB019C01CF01880FC4
:10040000991FFC01ED59FF4F3183208380916900D2
:100410008F5F80936900809169008330E1F41092CE
:100420006900209163003091640080916500909193
:100430006600280F391F8091670090916800820F35
:10044000931F23E030E0B9010E94E504CB019093B3
:1004500062008093610010926E0080917000909114
:100460007100009709F485CF80916100909162003E
:10047000009709F47ECF80917000909171008F30C9
:100480009105E8F4A8E3B0E0E8E3F0E08081806162
:100490008C93A8E3B0E0E8E3F0E080818F7D8C935B
:1004A000A8E3B0E0E8E3F0E080818F7B8C93A8E3E1
:1004B000B0E0E8E3F0E080818F778C9379C08091A1
:1004C0007000909171008031910520F18091700051
:1004D000909171008E319105E8F4A8E3B0E0E8E373
:1004E000F0E0808180628C93A8E3B0E0E8E3F0E084
:1004F00080818F7E8C93A8E3B0E0E8E3F0E0808118
:100500008F7B8C93A8E3B0E0E8E3F0E080818F7705
:100510008C934EC080917000909171008F31910545
:1005200020F1809170009091710086349105E8F47B
:10053000A8E3B0E0E8E3F0E0808180648C93A8E376
:10054000B0E0E8E3F0E080818F7D8C93A8E3B0E039
:10055000E8E3F0E080818F7E8C93A8E3B0E0E8E3ED
:10056000F0E080818F778C9323C080917000909110
:10057000710087349105E0F0A8E3B0E0E8E3F0E033
:10058000808180688C93A8E3B0E0E8E3F0E08081AC
:100590008F7D8C93A8E3B0E0E8E3F0E080818F7B6F
:1005A0008C93A8E3B0E0E8E3F0E080818F7E8C9349
:1005B0008981282F30E03B832A838A819B81813087
:1005C0009105B9F02A813B812230310509F18A81F8
:1005D0009B81009739F50E9499008091700090915D
:1005E000710086349105F0F481E089830E946B01EB
:1005F00019C082E089838091610090916200853604
:10060000910518F00E94DF000DC00E9402010AC08F
:1006100080917000909171008536910518F01982D3
:100620000E94990080917000909171008431910531
:1006300008F09FCE0E946B019CCEDF93CF9300D039
:10064000CDB7DEB789836A83ECE4F0E01082EAE498
:10065000F0E089818083E8E4F0E08A818083A1E38F
:10066000B0E0E1E3F0E0808180628C93A1E3B0E050
:10067000E1E3F0E0808180648C93AFE4B0E0EFE4EC
:10068000F0E0808181608C93AFE4B0E0EFE4F0E0D3
:10069000808180688C93AFE4B0E0EFE4F0E080818B
:1006A00080628C93AEE4B0E0EEE4F0E0808188609C
:1006B0008C93AEE4B0E0EEE4F0E0808182608C9355
:1006C0000F900F90CF91DF9108951F920F920FB668
:1006D0000F9211248F93AF93BF93EF93FF93DF9308
:1006E000CF93CDB7DEB780916A00882351F4ABE396
:1006F000B0E0EBE3F0E080818E7F8C9381E080932B
:100700006A0080916C00882321F481E080936C0062
:1007100007C080916B008F5F80936B0010926C001C
:10072000CF91DF91FF91EF91BF91AF918F910F909A
:100730000FBE0F901F901895DF93CF93CDB7DEB704
:10074000E2E5F0E01082A9E5B0E0E9E5F0E08081C3
:1007500081608C93A3E5B0E0E3E5F0E08081806800
:100760008C93A3E5B0E0E3E5F0E0808182608C93B8
:10077000CF91DF9108951F920F920FB60F9211241F
:100780008F93AF93BF93EF93FF93DF93CF93CDB747
:10079000DEB780916D00882351F4ABE3B0E0EBE36A
:1007A000F0E080818B7F8C9381E080936D0080915D
:1007B0006F00882321F481E080936F0007C080914F
:1007C0006E008F5F80936E0010926F00CF91DF916B
:1007D000FF91EF91BF91AF918F910F900FBE0F904E
:1007E0001F901895DF93CF93CDB7DEB7E4E4F0E028
:1007F0001082A9E5B0E0E9E5F0E0808180648C93A7
:10080000A5E4B0E0E5E4F0E0808180688C93A5E4A5
:10081000B0E0E5E4F0E0808182608C93CF91DF91DD
:100820000895DF93CF93CDB7DEB7AAE3B0E0EAE354
:10083000F0E0808181608C93AAE3B0E0EAE3F0E02D
:10084000808184608C93AAE3B0E0EAE3F0E08081E9
:100850008D7F8C93CF91DF910895DF93CF93CDB7A8
:10086000DEB7ABE3B0E0EBE3F0E0808181608C9336
:1008700010926A000E949C03CF91DF910895DF934C
:10088000CF93CDB7DEB7ABE3B0E0EBE3F0E0808130
:1008900084608C9310926D000E94F203CF91DF91DF
:1008A0000895DF93CF93CDB7DEB7AFE5B0E0EFE5C6
:1008B000F0E080818F778C93A7E3B0E0E7E3F0E08E
:1008C00080818B7F8C93ABE5B0E0EBE5F0E080813D
:1008D00080628C93A4E5B0E0E4E5F0E080818F7B5A
:1008E0008C93AFE5B0E0EFE5F0E0808180688C9319
:1008F000CF91DF9108951F920F920FB60F9211249E
:100900002F933F935F936F937F938F939F93AF93B7
:10091000BF93EF93FF93DF93CF93CDB7DEB7809173
:100920007800E82FF0E080916B00882F90E0982FFE
:100930008827885C90402AE330E0B9010E94F904DE
:10094000CB019C01CF01880F991FFC01EE58FF4F8E
:1009500031832083809178008F5F8093780080912D
:1009600078008330E1F41092780020917200309189
:1009700073008091740090917500280F391F809149
:10098000760090917700820F931F23E030E0B90149
:100990000E94E504CB019093710080937000109247
:1009A0006B0010926A00CF91DF91FF91EF91BF91A0
:1009B000AF919F918F917F916F915F913F912F9117
:1009C0000F900FBE0F901F901895AA1BBB1B51E1F3
:1009D00007C0AA1FBB1FA617B70710F0A61BB70BAF
:1009E000881F991F5A95A9F780959095BC01CD0154
:1009F000089597FB092E07260AD077FD04D0E5DF7E
:100A000006D000201AF4709561957F4F0895F6F78F
:0C0A1000909581959F4F0895F894FFCFBA
:00000001FF
