:100000000C942A000C9447000C9447000C947B0439
:100010000C9447000C94E9020C9447000C944700A0
:100020000C9447000C9447000C9447000C949202E7
:100030000C9447000C94F1030C9447000C94470077
:100040000C9447000C9447000C9447000C94470014
:100050000C94470011241FBECFE5D8E0DEBFCDBF12
:1000600010E0A0E6B0E0ECE1FAE002C005900D92ED
:10007000AE3CB107D9F710E0AEECB0E001C01D9284
:10008000AB3DB107E1F70E9499010C940C050C946B
:100090000000DF93CF93CDB7DEB7A1E3B0E0E1E39B
:1000A000F0E0808184608C93A1E3B0E0E1E3F0E0D4
:1000B000808188608C93A1E3B0E0E1E3F0E080818F
:1000C00080618C93A2E3B0E0E2E3F0E080818B7F7B
:1000D0008C93A2E3B0E0E2E3F0E08081877F8C9331
:1000E000A2E3B0E0E2E3F0E0808180618C93A1E3E1
:1000F000B0E0E1E3F0E0808180648C93A1E3B0E0C4
:10010000E1E3F0E0808180688C93A1E3B0E0E1E37B
:10011000F0E0808180628C93A2E3B0E0E2E3F0E063
:1001200080818F7B8C93A2E3B0E0E2E3F0E08081FA
:100130008F778C93A2E3B0E0E2E3F0E0808180620D
:100140008C93CF91DF910895DF93CF93CDB7DEB736
:10015000A2E3B0E0E2E3F0E080818B7F8C93A2E346
:10016000B0E0E2E3F0E0808188608C93A2E3B0E04D
:10017000E2E3F0E0808180648C93A2E3B0E0E2E30C
:10018000F0E080818F778C93CF91DF910895DF939A
:10019000CF93CDB7DEB7A2E3B0E0E2E3F0E0808139
:1001A00084608C93A2E3B0E0E2E3F0E08081877F9B
:1001B0008C93A2E3B0E0E2E3F0E080818F7B8C934C
:1001C000A2E3B0E0E2E3F0E0808180688C93CF911D
:1001D000DF910895DF93CF93CDB7DEB7A2E3B0E010
:1001E000E2E3F0E0808184608C93A2E3B0E0E2E39C
:1001F000F0E08081877F8C93A2E3B0E0E2E3F0E05F
:10020000808180648C93A2E3B0E0E2E3F0E080813F
:100210008F778C93CF91DF910895DF93CF93CDB7F4
:10022000DEB7A2E3B0E0E2E3F0E080818B7F8C9365
:10023000A2E3B0E0E2E3F0E0808188608C93A2E387
:10024000B0E0E2E3F0E080818F7B8C93A2E3B0E04A
:10025000E2E3F0E0808180688C93CF91DF91089594
:10026000DF93CF93CDB7DEB7A2E3B0E0E2E3F0E0F7
:1002700080818B7F8C93A2E3B0E0E2E3F0E08081A9
:10028000877F8C93A2E3B0E0E2E3F0E080818F7B94
:100290008C93A2E3B0E0E2E3F0E0808180688C938D
:1002A000CF91DF910895DF93CF93CDB7DEB7A2E36F
:1002B000B0E0E2E3F0E080818B7F8C93A2E3B0E0DA
:1002C000E2E3F0E0808188608C93A2E3B0E0E2E3B7
:1002D000F0E080818F7B8C93A2E3B0E0E2E3F0E07A
:1002E00080818F778C93CF91DF910895DF93CF93A7
:1002F000CDB7DEB7A2E3B0E0E2E3F0E080818B7F30
:100300008C93A2E3B0E0E2E3F0E08081877F8C93FE
:10031000A2E3B0E0E2E3F0E080818F7B8C93A2E384
:10032000B0E0E2E3F0E080818F778C93CF91DF91B2
:100330000895DF93CF9300D00F92CDB7DEB70E9420
:1003400011040E9451040E94490060E875E280E0B7
:1003500090E040E050E00E9440030E94A704198210
:100360000E94E2038632E1F78091D200882329F4CB
:100370000E942D0481E08093D2008091D5008823D3
:1003800029F40E943F0481E08093D500E9E3F0E086
:1003900080818695882F90E081709070882321F06D
:1003A00081E08093CE0026C0E9E3F0E0808186956D
:1003B000882F90E0817090700097E1F48091CE00DA
:1003C0008130C1F41092CE008091D500882F90E04A
:1003D000982F8827885C9040082E892F000C881F52
:1003E000990B000C881F991F9093D0008093CF0029
:1003F0001092D5008091D9009091DA00009709F40D
:10040000B3CF8091CF009091D000009709F4ACCF8A
:100410008981282F30E03B832A838A819B81813028
:100420009105B9F02A813B812230310509F18A8199
:100430009B81009721F50E94A4008091D9009091A2
:10044000DA008C339105D8F40E94760181E089832B
:1004500016C082E089838091CF009091D0008333D1
:10046000910518F00E94EA000AC00E940D0107C021
:100470008091D9009091DA00009709F0198280915B
:10048000D9009091DA008A30910508F06DCF0E9472
:1004900076016ACFDF93CF9300D0CDB7DEB78983E3
:1004A0006A83ECE4F0E01082EAE4F0E08981808382
:1004B000E8E4F0E08A818083A1E3B0E0E1E3F0E0EA
:1004C000808180628C93A1E3B0E0E1E3F0E0808181
:1004D00080648C93AFE4B0E0EFE4F0E08081816071
:1004E0008C93AFE4B0E0EFE4F0E0808180688C931F
:1004F000AFE4B0E0EFE4F0E0808180628C93AEE4A2
:10050000B0E0EEE4F0E0808188608C93AEE4B0E08F
:10051000EEE4F0E0808182608C930F900F90CF9199
:10052000DF9108951F920F920FB60F9211248F93AF
:10053000AF93BF93EF93FF93DF93CF93CDB7DEB726
:100540008091D100882359F4ABE3B0E0EBE3F0E015
:1005500080818E7F8C9381E08093D1000FC0809149
:10056000D300882321F481E08093D30007C0109248
:10057000D3008091D2008F5F8093D200CF91DF9122
:10058000FF91EF91BF91AF918F910F900FBE0F90A0
:100590001F901895DF93CF93CDB7DEB7E2E5F0E07B
:1005A0001082A9E5B0E0E9E5F0E0808181608C93FC
:1005B000A3E5B0E0E3E5F0E0808180688C93A3E5FB
:1005C000B0E0E3E5F0E0808182608C93CF91DF9131
:1005D00008951F920F920FB60F9211248F93AF932D
:1005E000BF93EF93FF93DF93CF93CDB7DEB78091A7
:1005F000D400882359F4ABE3B0E0EBE3F0E0808172
:100600008B7F8C9381E08093D4000FC08091D600C3
:10061000882321F481E08093D60007C01092D60091
:100620008091D5008F5F8093D500CF91DF91FF91AE
:10063000EF91BF91AF918F910F900FBE0F901F90D0
:100640001895DF93CF93CDB7DEB7E4E4F0E01082E6
:10065000A9E5B0E0E9E5F0E0808180648C93A5E451
:10066000B0E0E5E4F0E0808180688C93A5E4B0E040
:10067000E5E4F0E0808182608C93CF91DF91089572
:10068000DF93CF93CDB7DEB728970FB6F894DEBFD0
:100690000FBECDBF6B837C838D839E8358874F8332
:1006A0001A8219828B819C81AD81BE81880F991F2E
:1006B000AA1FBB1F880F991FAA1FBB1F880F991F56
:1006C000AA1FBB1F880F991FAA1FBB1F9C01AD014A
:1006D00080E094E2A4EFB0E0BC01CD010E94EA0406
:1006E000DA01C90101979A838983AAE2B0E0EAE2BC
:1006F000F0E0808188618C938F819885009769F004
:100700008F8198859093D8008093D700AAE2B0E0BB
:10071000EAE2F0E0808180688C93E0E4F0E086E833
:100720008083E0E4F0E089819A81892F9927808392
:10073000E9E2F0E08981808328960FB6F894DEBF65
:100740000FBECDBFCF91DF910895DF93CF93CDB78B
:10075000DEB7EAE2F0E01082CF91DF910895DF93F7
:10076000CF9300D0CDB7DEB79A8389830AC0E981E1
:10077000FA8180810E94CB0389819A8101969A83B4
:100780008983E981FA818081882389F70F900F900E
:10079000CF91DF910895DF93CF930F92CDB7DEB75E
:1007A0008983EBE2F0E08081882F90E08072907086
:1007B0000097B9F3ECE2F0E0898180830F90CF914C
:1007C000DF910895DF93CF93CDB7DEB7EBE2F0E092
:1007D00080818823DCF7ECE2F0E08081CF91DF912B
:1007E00008951F920F920FB60F921124DF93CF93AB
:1007F000CDB7DEB7CF91DF910F900FBE0F901F9056
:100800001895DF93CF93CDB7DEB7EBE2F0E08081B0
:10081000882F90E0807490700097B9F3CF91DF91AA
:100820000895DF93CF93CDB7DEB7AAE3B0E0EAE354
:10083000F0E0808181608C93AAE3B0E0EAE3F0E02D
:10084000808184608C93AAE3B0E0EAE3F0E08081E9
:100850008D7F8C93CF91DF910895DF93CF93CDB7A8
:10086000DEB7ABE3B0E0EBE3F0E0808181608C9336
:100870001092D1000E94CA02CF91DF910895DF93B8
:10088000CF93CDB7DEB7ABE3B0E0EBE3F0E0808130
:1008900084608C931092D4000E942103CF91DF9149
:1008A0000895DF93CF93CDB7DEB7AFE5B0E0EFE5C6
:1008B000F0E080818F778C93A7E3B0E0E7E3F0E08E
:1008C00080818B7F8C93ABE5B0E0EBE5F0E080813D
:1008D00080628C93A4E5B0E0E4E5F0E080818F7B5A
:1008E0008C93AFE5B0E0EFE5F0E0808180688C9319
:1008F000CF91DF9108951F920F920FB60F9211249E
:100900008F939F93DF93CF93CDB7DEB78091D200C3
:10091000882F90E0982F8827885C9040082E892F98
:10092000000C881F990B000C881F991F9093DA0008
:100930008093D9001092D2001092D100CF91DF9114
:100940009F918F910F900FBE0F901F901895DF937E
:10095000CF93CDB7DEB70E94D20480E690E00E942C
:10096000AF030E94D2048EE690E00E94AF030E9483
:10097000D2048AEA90E00E94AF030E94D20488EB7E
:1009800090E00E94AF030E94D204CF91DF910895BE
:10099000DF93CF930F92CDB7DEB789830F90CF91BE
:1009A000DF910895DF93CF9300D0CDB7DEB78FEFFF
:1009B0009FEF9A83898305C089819A8101979A83E1
:1009C000898389819A810097B9F70F900F90CF9111
:1009D000DF910895A1E21A2EAA1BBB1BFD010DC0D9
:1009E000AA1FBB1FEE1FFF1FA217B307E407F507DF
:1009F00020F0A21BB30BE40BF50B661F771F881FBB
:100A0000991F1A9469F760957095809590959B0150
:0C0A1000AC01BD01CF010895F894FFCFA8
:100A1C0041542B43574D4F44453D330D0A0041542F
:100A2C002B4349505354413D223139322E31363803
:100A3C002E34332E313030222C223139322E3136B5
:100A4C00382E34332E31222C223235352E32353598
:100A5C002E3235352E30220D0A0041542B4349508D
:100A6C004D55583D310D0A0041542B4349505345C7
:0E0A7C00525645523D312C383038300D0A00AC
:00000001FF
