:100000000C942A000C9447000C9447000C94470071
:100010000C9447000C9447000C9447000C94470044
:100020000C9447000C9447000C9447000C94470034
:100030000C9447000C94E6020C9447000C94470083
:100040000C9447000C9447000C9447000C94470014
:100050000C94470011241FBECFE5D8E0DEBFCDBF12
:1000600010E0A0E6B0E0EAEDF6E002C005900D92E7
:10007000AE3CB107D9F710E0AEECB0E001C01D9284
:10008000A33DB107E1F70E9499010C946B030C9416
:100090000000DF93CF93CDB7DEB7A1E3B0E0E1E39B
:1000A000F0E0808184608C93A1E3B0E0E1E3F0E0D4
:1000B000808188608C93A1E3B0E0E1E3F0E080818F
:1000C00080618C93A2E3B0E0E2E3F0E080818B7F7B
:1000D0008C93A2E3B0E0E2E3F0E08081877F8C9331
:1000E000A2E3B0E0E2E3F0E0808180618C93A1E3E1
:1000F000B0E0E1E3F0E0808180648C93A1E3B0E0C4
:10010000E1E3F0E0808180688C93A1E3B0E0E1E37B
:10011000F0E0808180628C93A2E3B0E0E2E3F0E063
:1001200080818F7B8C93A2E3B0E0E2E3F0E08081FA
:100130008F778C93A2E3B0E0E2E3F0E0808180620D
:100140008C93CF91DF910895DF93CF93CDB7DEB736
:10015000A2E3B0E0E2E3F0E080818B7F8C93A2E346
:10016000B0E0E2E3F0E0808188608C93A2E3B0E04D
:10017000E2E3F0E0808180648C93A2E3B0E0E2E30C
:10018000F0E080818F778C93CF91DF910895DF939A
:10019000CF93CDB7DEB7A2E3B0E0E2E3F0E0808139
:1001A00084608C93A2E3B0E0E2E3F0E08081877F9B
:1001B0008C93A2E3B0E0E2E3F0E080818F7B8C934C
:1001C000A2E3B0E0E2E3F0E0808180688C93CF911D
:1001D000DF910895DF93CF93CDB7DEB7A2E3B0E010
:1001E000E2E3F0E0808184608C93A2E3B0E0E2E39C
:1001F000F0E08081877F8C93A2E3B0E0E2E3F0E05F
:10020000808180648C93A2E3B0E0E2E3F0E080813F
:100210008F778C93CF91DF910895DF93CF93CDB7F4
:10022000DEB7A2E3B0E0E2E3F0E080818B7F8C9365
:10023000A2E3B0E0E2E3F0E0808188608C93A2E387
:10024000B0E0E2E3F0E080818F7B8C93A2E3B0E04A
:10025000E2E3F0E0808180688C93CF91DF91089594
:10026000DF93CF93CDB7DEB7A2E3B0E0E2E3F0E0F7
:1002700080818B7F8C93A2E3B0E0E2E3F0E08081A9
:10028000877F8C93A2E3B0E0E2E3F0E080818F7B94
:100290008C93A2E3B0E0E2E3F0E0808180688C938D
:1002A000CF91DF910895DF93CF93CDB7DEB7A2E36F
:1002B000B0E0E2E3F0E080818B7F8C93A2E3B0E0DA
:1002C000E2E3F0E0808188608C93A2E3B0E0E2E3B7
:1002D000F0E080818F7B8C93A2E3B0E0E2E3F0E07A
:1002E00080818F778C93CF91DF910895DF93CF93A7
:1002F000CDB7DEB7A2E3B0E0E2E3F0E080818B7F30
:100300008C93A2E3B0E0E2E3F0E08081877F8C93FE
:10031000A2E3B0E0E2E3F0E080818F7B8C93A2E384
:10032000B0E0E2E3F0E080818F778C93CF91DF91B2
:100330000895DF93CF9300D0CDB7DEB760E875E2C4
:1003400080E090E040E050E00E9435020E94060309
:100350000E94D702282F30E03A83298389819A812D
:1003600081379105A1F129813A812237310584F441
:1003700089819A818436910521F129813A81253636
:10038000310541F189819A8181369105B9F0E0CF3B
:1003900029813A812737310559F089819A81883737
:1003A000910591F029813A812337310521F0D0CF91
:1003B0000E94A400CDCF0E947601CACF0E940D01F9
:1003C000C7CF0E94EA00C4CF0E94C700C1CF0E94DD
:1003D0005301BECF0E943001BBCFDF93CF9300D03B
:1003E000CDB7DEB789836A83ECE4F0E01082EAE4FB
:1003F000F0E089818083E8E4F0E08A818083A1E3F2
:10040000B0E0E1E3F0E0808180628C93A1E3B0E0B2
:10041000E1E3F0E0808180648C93AFE4B0E0EFE44E
:10042000F0E0808181608C93AFE4B0E0EFE4F0E035
:10043000808180688C93AFE4B0E0EFE4F0E08081ED
:1004400080628C93AEE4B0E0EEE4F0E080818860FE
:100450008C93AEE4B0E0EEE4F0E0808182608C93B7
:100460000F900F90CF91DF910895DF93CF93CDB789
:10047000DEB728970FB6F894DEBF0FBECDBF6B83F3
:100480007C838D839E8358874F831A8219828B8148
:100490009C81AD81BE81880F991FAA1FBB1F880F49
:1004A000991FAA1FBB1F880F991FAA1FBB1F880F68
:1004B000991FAA1FBB1F9C01AD0180E094E2A4EF2D
:1004C000B0E0BC01CD010E944903DA01C9010197E6
:1004D0009A838983AAE2B0E0EAE2F0E08081886151
:1004E0008C938F819885009769F08F819885909380
:1004F000D2008093D100AAE2B0E0EAE2F0E080818D
:1005000080688C93E0E4F0E086E88083E0E4F0E04B
:1005100089819A81892F99278083E9E2F0E0898196
:10052000808328960FB6F894DEBF0FBECDBFCF9163
:10053000DF910895DF93CF93CDB7DEB7EAE2F0E025
:100540001082CF91DF910895DF93CF9300D0CDB784
:10055000DEB79A8389830AC0E981FA8180810E948B
:10056000C00289819A8101969A838983E981FA81FF
:100570008081882389F70F900F90CF91DF910895A4
:10058000DF93CF930F92CDB7DEB78983EBE2F0E034
:100590008081882F90E0807290700097B9F3ECE230
:1005A000F0E0898180830F90CF91DF910895DF93F0
:1005B000CF93CDB7DEB7EBE2F0E080818823DCF7A4
:1005C000ECE2F0E08081CF91DF9108951F920F92CD
:1005D0000FB60F921124DF93CF93CDB7DEB7CF9133
:1005E000DF910F900FBE0F901F901895DF93CF9360
:1005F000CDB7DEB7EBE2F0E08081882F90E0807429
:1006000090700097B9F3CF91DF910895DF93CF9366
:10061000CDB7DEB70E94310380E690E00E94A402CD
:100620000E9431038EE690E00E94A4020E943103F2
:1006300089EA90E00E94A4020E94310387EB90E0D7
:100640000E94A4020E943103CF91DF910895DF93AD
:10065000CF930F92CDB7DEB789830F90CF91DF9103
:100660000895DF93CF9300D0CDB7DEB78FEF9FEF24
:100670009A83898305C089819A8101979A838983A6
:1006800089819A810097B9F70F900F90CF91DF91F0
:100690000895A1E21A2EAA1BBB1BFD010DC0AA1FC3
:1006A000BB1FEE1FFF1FA217B307E407F50720F0DB
:1006B000A21BB30BE40BF50B661F771F881F991F56
:1006C0001A9469F760957095809590959B01AC019F
:0A06D000BD01CF010895F894FFCF9B
:1006DA0041542B43574D4F44453D310D0A00415477
:1006EA002B4349505354413D223139322E31363849
:1006FA002E34332E3530222C223139322E313638EF
:10070A002E34332E31222C223235352E3235352EE7
:10071A003235352E30220D0A0041542B4349504DB3
:10072A0055583D310D0A0041542B43495053455207
:0E073A005645523D312C383038300D0A000043
:00000001FF
