:100000000C942A000C943C000C943C000C94AB0320
:100010000C943C000C94EE020C943C000C943C00BC
:100020000C943C000C943C000C943C000C94910209
:100030000C943C000C943C000C943C000C943C0050
:100040000C943C000C943C000C943C000C943C0040
:100050000C943C0011241FBECFE5D8E0DEBFCDBF1D
:1000600010E0A0E6B0E001C01D92AD36B107E1F7A7
:100070000E948E010C9410040C940000DF93CF9327
:10008000CDB7DEB7A1E3B0E0E1E3F0E080818460CA
:100090008C93A1E3B0E0E1E3F0E0808188608C9391
:1000A000A1E3B0E0E1E3F0E0808180618C93A2E322
:1000B000B0E0E2E3F0E080818B7F8C93A2E3B0E0DC
:1000C000E2E3F0E08081877F8C93A2E3B0E0E2E39B
:1000D000F0E0808180618C93A1E3B0E0E1E3F0E0A7
:1000E000808180648C93A1E3B0E0E1E3F0E0808163
:1000F00080688C93A1E3B0E0E1E3F0E0808180626E
:100100008C93A2E3B0E0E2E3F0E080818F7B8C93FC
:10011000A2E3B0E0E2E3F0E080818F778C93A2E38A
:10012000B0E0E2E3F0E0808180628C93CF91DF91D8
:100130000895DF93CF93CDB7DEB7A2E3B0E0E2E35B
:10014000F0E080818B7F8C93A2E3B0E0E2E3F0E00B
:10015000808188608C93A2E3B0E0E2E3F0E08081EC
:1001600080648C93A2E3B0E0E2E3F0E080818F77DB
:100170008C93CF91DF910895DF93CF93CDB7DEB706
:10018000A2E3B0E0E2E3F0E0808184608C93A2E33C
:10019000B0E0E2E3F0E08081877F8C93A2E3B0E0FF
:1001A000E2E3F0E080818F7B8C93A2E3B0E0E2E3B6
:1001B000F0E0808180688C93CF91DF910895DF9388
:1001C000CF93CDB7DEB7A2E3B0E0E2E3F0E0808109
:1001D00084608C93A2E3B0E0E2E3F0E08081877F6B
:1001E0008C93A2E3B0E0E2E3F0E0808180648C9342
:1001F000A2E3B0E0E2E3F0E080818F778C93CF91CF
:10020000DF910895DF93CF93CDB7DEB7A2E3B0E0DF
:10021000E2E3F0E080818B7F8C93A2E3B0E0E2E345
:10022000F0E0808188608C93A2E3B0E0E2E3F0E04C
:1002300080818F7B8C93A2E3B0E0E2E3F0E08081E9
:1002400080688C93CF91DF910895DF93CF93CDB7E2
:10025000DEB7A2E3B0E0E2E3F0E080818B7F8C9335
:10026000A2E3B0E0E2E3F0E08081877F8C93A2E339
:10027000B0E0E2E3F0E080818F7B8C93A2E3B0E01A
:10028000E2E3F0E0808180688C93CF91DF91089564
:10029000DF93CF93CDB7DEB7A2E3B0E0E2E3F0E0C7
:1002A00080818B7F8C93A2E3B0E0E2E3F0E0808179
:1002B00088608C93A2E3B0E0E2E3F0E080818F7B82
:1002C0008C93A2E3B0E0E2E3F0E080818F778C933F
:1002D000CF91DF910895DF93CF93CDB7DEB7A2E33F
:1002E000B0E0E2E3F0E080818B7F8C93A2E3B0E0AA
:1002F000E2E3F0E08081877F8C93A2E3B0E0E2E369
:10030000F0E080818F7B8C93A2E3B0E0E2E3F0E049
:1003100080818F778C93CF91DF910895DF93CF9376
:1003200000D00F92CDB7DEB70E9441030E94810337
:100330000E943E00A7E3B0E0E7E3F0E08081806147
:100340008C93A8E3B0E0E8E3F0E0808180618C93D7
:10035000198280916400882361F40E945D0381E02A
:1003600080936400A8E3B0E0E8E3F0E0808180617E
:100370008C9380916900882329F40E946F0381E0A7
:1003800080936900E9E3F0E080818695882F90E012
:1003900081709070882321F081E0809360002FC0ED
:1003A000E9E3F0E080818695882F90E0817090707D
:1003B000009729F580916000813009F51092600066
:1003C00080916900882F90E082959295907F982780
:1003D000807F9827885C904024E630E0B9010E9435
:1003E000FD03CB019093620080936100109269003D
:1003F000A8E3B0E0E8E3F0E080818F7E8C93809109
:100400006B0090916C00009709F4A3CF809161007C
:1004100090916200009709F49CCF8981282F30E0E9
:100420003B832A838A819B8181309105B9F02A819F
:100430003B812230310519F18A819B81009709F0B7
:1004400088CF0E94990080916B0090916C008E3152
:10045000910508F07ECF81E089837BCF0E946B01FC
:1004600082E08983809161009091620083339105DD
:1004700018F00E94DF006DCF0E9402016ACF8091C8
:100480006B0090916C008536910508F462CF19825B
:1004900060CFDF93CF9300D0CDB7DEB789836A8377
:1004A000ECE4F0E01082EAE4F0E089818083E8E4A3
:1004B000F0E08A818083A1E3B0E0E1E3F0E08081B5
:1004C00080628C93A1E3B0E0E1E3F0E0808180649E
:1004D0008C93AFE4B0E0EFE4F0E0808181608C9336
:1004E000AFE4B0E0EFE4F0E0808180688C93AFE4AB
:1004F000B0E0EFE4F0E0808180628C93AEE4B0E0A5
:10050000EEE4F0E0808188608C93AEE4B0E0EEE44D
:10051000F0E0808182608C930F900F90CF91DF91FB
:1005200008951F920F920FB60F9211248F939F93ED
:10053000AF93BF93EF93FF93DF93CF93CDB7DEB726
:1005400080916300882359F4ABE3B0E0EBE3F0E083
:1005500080818E7F8C9381E08093630013C08091B3
:10056000640090916500A0916600B09167000196CB
:10057000A11DB11D8093640090936500A093660057
:10058000B0936700CF91DF91FF91EF91BF91AF9151
:100590009F918F910F900FBE0F901F901895DF9332
:1005A000CF93CDB7DEB7E2E5F0E01082A9E5B0E089
:1005B000E9E5F0E0808181608C93A3E5B0E0E3E5BC
:1005C000F0E0808180688C93A3E5B0E0E3E5F0E0A3
:1005D000808181608C93CF91DF9108951F920F925B
:1005E0000FB60F9211248F939F93AF93BF93EF9306
:1005F000FF93DF93CF93CDB7DEB780916800882358
:1006000059F4ABE3B0E0EBE3F0E080818B7F8C93B7
:1006100081E08093680009C08091690090916A0030
:10062000019690936A0080936900CF91DF91FF91CA
:10063000EF91BF91AF919F918F910F900FBE0F904F
:100640001F901895DF93CF93CDB7DEB7E4E4F0E0C9
:100650001082A9E5B0E0E9E5F0E0808180648C9348
:10066000A5E4B0E0E5E4F0E0808180688C93A5E447
:10067000B0E0E5E4F0E0808181608C93CF91DF9180
:100680000895DF93CF93CDB7DEB7AAE3B0E0EAE3F6
:10069000F0E0808181608C93AAE3B0E0EAE3F0E0CF
:1006A000808184608C93AAE3B0E0EAE3F0E080818B
:1006B0008D7F8C93CF91DF910895DF93CF93CDB74A
:1006C000DEB7ABE3B0E0EBE3F0E0808181608C93D8
:1006D000109263000E94CF02CF91DF910895DF93C3
:1006E000CF93CDB7DEB7ABE3B0E0EBE3F0E08081D2
:1006F00084608C93109268000E942203CF91DF9156
:100700000895DF93CF93CDB7DEB7AFE5B0E0EFE567
:10071000F0E080818F778C93A7E3B0E0E7E3F0E02F
:1007200080818B7F8C93ABE5B0E0EBE5F0E08081DE
:1007300080628C93A4E5B0E0E4E5F0E080818F7BFB
:100740008C93AFE5B0E0EFE5F0E0808180688C93BA
:10075000CF91DF9108951F920F920FB60F9211243F
:100760002F933F935F936F937F938F939F93AF9359
:10077000BF93DF93CF93CDB7DEB7809164009091A4
:10078000650082959295907F9827807F9827885C56
:10079000904024E630E0B9010E94E903CB01909338
:1007A0006C0080936B0010926500109264001092B0
:1007B0006300CF91DF91BF91AF919F918F917F9116
:1007C0006F915F913F912F910F900FBE0F901F90EF
:1007D0001895AA1BBB1B51E107C0AA1FBB1FA61778
:1007E000B70710F0A61BB70B881F991F5A95A9F7DA
:1007F00080959095BC01CD01089597FB092E0726A1
:100800000AD077FD04D0E5DF06D000201AF47095F9
:1008100061957F4F0895F6F7909581959F4F0895C4
:04082000F894FFCF7A
:00000001FF
